{
  "_format": "hh-sol-artifact-1",
  "contractName": "Improver",
  "sourceName": "contracts/Improver.sol",
  "abi": [
    {
      "inputs": [
        {
          "internalType": "uint256",
          "name": "",
          "type": "uint256"
        }
      ],
      "name": "activities",
      "outputs": [
        {
          "internalType": "address",
          "name": "owner",
          "type": "address"
        },
        {
          "internalType": "uint256",
          "name": "start",
          "type": "uint256"
        },
        {
          "internalType": "uint256",
          "name": "end",
          "type": "uint256"
        },
        {
          "internalType": "bool",
          "name": "status",
          "type": "bool"
        },
        {
          "internalType": "string",
          "name": "activity",
          "type": "string"
        },
        {
          "internalType": "uint256",
          "name": "id",
          "type": "uint256"
        },
        {
          "internalType": "int256",
          "name": "routineID",
          "type": "int256"
        }
      ],
      "stateMutability": "view",
      "type": "function"
    },
    {
      "inputs": [
        {
          "internalType": "uint256",
          "name": "",
          "type": "uint256"
        }
      ],
      "name": "activityToID",
      "outputs": [
        {
          "internalType": "address",
          "name": "owner",
          "type": "address"
        },
        {
          "internalType": "uint256",
          "name": "start",
          "type": "uint256"
        },
        {
          "internalType": "uint256",
          "name": "end",
          "type": "uint256"
        },
        {
          "internalType": "bool",
          "name": "status",
          "type": "bool"
        },
        {
          "internalType": "string",
          "name": "activity",
          "type": "string"
        },
        {
          "internalType": "uint256",
          "name": "id",
          "type": "uint256"
        },
        {
          "internalType": "int256",
          "name": "routineID",
          "type": "int256"
        }
      ],
      "stateMutability": "view",
      "type": "function"
    },
    {
      "inputs": [
        {
          "internalType": "uint256",
          "name": "",
          "type": "uint256"
        }
      ],
      "name": "activityToOwner",
      "outputs": [
        {
          "internalType": "address",
          "name": "",
          "type": "address"
        }
      ],
      "stateMutability": "view",
      "type": "function"
    },
    {
      "inputs": [
        {
          "internalType": "address",
          "name": "",
          "type": "address"
        }
      ],
      "name": "addressToUser",
      "outputs": [
        {
          "internalType": "string",
          "name": "username",
          "type": "string"
        },
        {
          "internalType": "address",
          "name": "_address",
          "type": "address"
        },
        {
          "internalType": "string",
          "name": "profilePic",
          "type": "string"
        },
        {
          "internalType": "uint256",
          "name": "id",
          "type": "uint256"
        }
      ],
      "stateMutability": "view",
      "type": "function"
    },
    {
      "inputs": [
        {
          "internalType": "uint256",
          "name": "_start",
          "type": "uint256"
        },
        {
          "internalType": "uint256",
          "name": "_end",
          "type": "uint256"
        },
        {
          "internalType": "string",
          "name": "_activity",
          "type": "string"
        }
      ],
      "name": "createActivity",
      "outputs": [],
      "stateMutability": "nonpayable",
      "type": "function"
    },
    {
      "inputs": [
        {
          "internalType": "string[]",
          "name": "ids",
          "type": "string[]"
        },
        {
          "internalType": "string",
          "name": "_routineName",
          "type": "string"
        }
      ],
      "name": "createRoutine",
      "outputs": [],
      "stateMutability": "nonpayable",
      "type": "function"
    },
    {
      "inputs": [],
      "name": "getMyActivity",
      "outputs": [
        {
          "components": [
            {
              "internalType": "address",
              "name": "owner",
              "type": "address"
            },
            {
              "internalType": "uint256",
              "name": "start",
              "type": "uint256"
            },
            {
              "internalType": "uint256",
              "name": "end",
              "type": "uint256"
            },
            {
              "internalType": "bool",
              "name": "status",
              "type": "bool"
            },
            {
              "internalType": "string",
              "name": "activity",
              "type": "string"
            },
            {
              "internalType": "uint256",
              "name": "id",
              "type": "uint256"
            },
            {
              "internalType": "int256",
              "name": "routineID",
              "type": "int256"
            }
          ],
          "internalType": "struct Improver.Activity[]",
          "name": "",
          "type": "tuple[]"
        }
      ],
      "stateMutability": "view",
      "type": "function"
    },
    {
      "inputs": [],
      "name": "getMyRoutines",
      "outputs": [
        {
          "components": [
            {
              "internalType": "string",
              "name": "routineName",
              "type": "string"
            },
            {
              "internalType": "bool",
              "name": "areAllActivitiesDone",
              "type": "bool"
            },
            {
              "internalType": "address",
              "name": "owner",
              "type": "address"
            },
            {
              "internalType": "uint256",
              "name": "id",
              "type": "uint256"
            }
          ],
          "internalType": "struct Improver.Routine[]",
          "name": "",
          "type": "tuple[]"
        }
      ],
      "stateMutability": "view",
      "type": "function"
    },
    {
      "inputs": [
        {
          "internalType": "uint256",
          "name": "_routineID",
          "type": "uint256"
        }
      ],
      "name": "getRoutineActivities",
      "outputs": [
        {
          "components": [
            {
              "internalType": "address",
              "name": "owner",
              "type": "address"
            },
            {
              "internalType": "uint256",
              "name": "start",
              "type": "uint256"
            },
            {
              "internalType": "uint256",
              "name": "end",
              "type": "uint256"
            },
            {
              "internalType": "bool",
              "name": "status",
              "type": "bool"
            },
            {
              "internalType": "string",
              "name": "activity",
              "type": "string"
            },
            {
              "internalType": "uint256",
              "name": "id",
              "type": "uint256"
            },
            {
              "internalType": "int256",
              "name": "routineID",
              "type": "int256"
            }
          ],
          "internalType": "struct Improver.Activity[]",
          "name": "",
          "type": "tuple[]"
        }
      ],
      "stateMutability": "view",
      "type": "function"
    },
    {
      "inputs": [
        {
          "internalType": "address",
          "name": "",
          "type": "address"
        }
      ],
      "name": "ownerToActivity",
      "outputs": [
        {
          "internalType": "address",
          "name": "owner",
          "type": "address"
        },
        {
          "internalType": "uint256",
          "name": "start",
          "type": "uint256"
        },
        {
          "internalType": "uint256",
          "name": "end",
          "type": "uint256"
        },
        {
          "internalType": "bool",
          "name": "status",
          "type": "bool"
        },
        {
          "internalType": "string",
          "name": "activity",
          "type": "string"
        },
        {
          "internalType": "uint256",
          "name": "id",
          "type": "uint256"
        },
        {
          "internalType": "int256",
          "name": "routineID",
          "type": "int256"
        }
      ],
      "stateMutability": "view",
      "type": "function"
    },
    {
      "inputs": [
        {
          "internalType": "string",
          "name": "_username",
          "type": "string"
        }
      ],
      "name": "register",
      "outputs": [],
      "stateMutability": "nonpayable",
      "type": "function"
    },
    {
      "inputs": [
        {
          "internalType": "address",
          "name": "_address",
          "type": "address"
        }
      ],
      "name": "retrieveUserFromAddress",
      "outputs": [
        {
          "components": [
            {
              "internalType": "string",
              "name": "username",
              "type": "string"
            },
            {
              "internalType": "address",
              "name": "_address",
              "type": "address"
            },
            {
              "internalType": "string",
              "name": "profilePic",
              "type": "string"
            },
            {
              "internalType": "uint256",
              "name": "id",
              "type": "uint256"
            }
          ],
          "internalType": "struct Improver.User",
          "name": "",
          "type": "tuple"
        }
      ],
      "stateMutability": "view",
      "type": "function"
    },
    {
      "inputs": [
        {
          "internalType": "uint256",
          "name": "",
          "type": "uint256"
        }
      ],
      "name": "routineToOwner",
      "outputs": [
        {
          "internalType": "address",
          "name": "",
          "type": "address"
        }
      ],
      "stateMutability": "view",
      "type": "function"
    },
    {
      "inputs": [
        {
          "internalType": "uint256",
          "name": "",
          "type": "uint256"
        }
      ],
      "name": "routines",
      "outputs": [
        {
          "internalType": "string",
          "name": "routineName",
          "type": "string"
        },
        {
          "internalType": "bool",
          "name": "areAllActivitiesDone",
          "type": "bool"
        },
        {
          "internalType": "address",
          "name": "owner",
          "type": "address"
        },
        {
          "internalType": "uint256",
          "name": "id",
          "type": "uint256"
        }
      ],
      "stateMutability": "view",
      "type": "function"
    },
    {
      "inputs": [
        {
          "internalType": "uint256",
          "name": "",
          "type": "uint256"
        }
      ],
      "name": "users",
      "outputs": [
        {
          "internalType": "string",
          "name": "username",
          "type": "string"
        },
        {
          "internalType": "address",
          "name": "_address",
          "type": "address"
        },
        {
          "internalType": "string",
          "name": "profilePic",
          "type": "string"
        },
        {
          "internalType": "uint256",
          "name": "id",
          "type": "uint256"
        }
      ],
      "stateMutability": "view",
      "type": "function"
    }
  ],
  "bytecode": "0x608060405234801561001057600080fd5b50612f28806100206000396000f3fe608060405234801561001057600080fd5b50600436106100f45760003560e01c8063681821db11610097578063e539259a11610066578063e539259a146102d2578063e8fd7c9c14610305578063edf5388614610335578063f2c298be14610368576100f4565b8063681821db1461022057806375cfb6f014610250578063ba2b4b481461026c578063d9ef800d1461029c576100f4565b80632f7d668b116100d35780632f7d668b1461017d578063365b98b21461019b578063367de300146101ce5780634531fdc514610204576100f4565b80627a5500146100f95780630d1657e81461011757806310d04b431461014d575b600080fd5b610101610384565b60405161010e91906122f4565b60405180910390f35b610131600480360381019061012c9190612356565b61068e565b6040516101449796959493929190612413565b60405180910390f35b610167600480360381019061016291906124b5565b610795565b604051610174919061254c565b60405180910390f35b610185610972565b60405161019291906126db565b60405180910390f35b6101b560048036038101906101b09190612356565b610c9a565b6040516101c594939291906126fd565b60405180910390f35b6101e860048036038101906101e39190612356565b610e0a565b6040516101fb9796959493929190612413565b60405180910390f35b61021e60048036038101906102199190612885565b610f01565b005b61023a60048036038101906102359190612356565b6110a6565b60405161024791906128f4565b60405180910390f35b61026a600480360381019061026591906129f5565b6110d9565b005b61028660048036038101906102819190612356565b6114f2565b60405161029391906126db565b60405180910390f35b6102b660048036038101906102b191906124b5565b61184d565b6040516102c99796959493929190612413565b60405180910390f35b6102ec60048036038101906102e79190612356565b611944565b6040516102fc9493929190612a6d565b60405180910390f35b61031f600480360381019061031a9190612356565b611a39565b60405161032c91906128f4565b60405180910390f35b61034f600480360381019061034a91906124b5565b611a6c565b60405161035f94939291906126fd565b60405180910390f35b610382600480360381019061037d9190612ab9565b611bcc565b005b6060600060028054905067ffffffffffffffff8111156103a7576103a661275a565b5b6040519080825280602002602001820160405280156103e057816020015b6103cd611ff7565b8152602001906001900390816103c55790505b5090506000805b6002805490508110156105d4573373ffffffffffffffffffffffffffffffffffffffff166007600083815260200190815260200160002060009054906101000a900473ffffffffffffffffffffffffffffffffffffffff1673ffffffffffffffffffffffffffffffffffffffff16036105c1576002818154811061046e5761046d612b02565b5b906000526020600020906003020160405180608001604052908160008201805461049790612b60565b80601f01602080910402602001604051908101604052809291908181526020018280546104c390612b60565b80156105105780601f106104e557610100808354040283529160200191610510565b820191906000526020600020905b8154815290600101906020018083116104f357829003601f168201915b505050505081526020016001820160009054906101000a900460ff161515151581526020016001820160019054906101000a900473ffffffffffffffffffffffffffffffffffffffff1673ffffffffffffffffffffffffffffffffffffffff1673ffffffffffffffffffffffffffffffffffffffff1681526020016002820154815250508383815181106105a7576105a6612b02565b5b602002602001018190525081806105bd90612bc0565b9250505b80806105cc90612bc0565b9150506103e7565b5060008167ffffffffffffffff8111156105f1576105f061275a565b5b60405190808252806020026020018201604052801561062a57816020015b610617611ff7565b81526020019060019003908161060f5790505b50905060005b828110156106845783818151811061064b5761064a612b02565b5b602002602001015182828151811061066657610665612b02565b5b6020026020010181905250808061067c90612bc0565b915050610630565b5080935050505090565b6001818154811061069e57600080fd5b90600052602060002090600702016000915090508060000160009054906101000a900473ffffffffffffffffffffffffffffffffffffffff16908060010154908060020154908060030160009054906101000a900460ff169080600401805461070690612b60565b80601f016020809104026020016040519081016040528092919081815260200182805461073290612b60565b801561077f5780601f106107545761010080835404028352916020019161077f565b820191906000526020600020905b81548152906001019060200180831161076257829003601f168201915b5050505050908060050154908060060154905087565b61079d612037565b600360008373ffffffffffffffffffffffffffffffffffffffff1673ffffffffffffffffffffffffffffffffffffffff1681526020019081526020016000206040518060800160405290816000820180546107f790612b60565b80601f016020809104026020016040519081016040528092919081815260200182805461082390612b60565b80156108705780601f1061084557610100808354040283529160200191610870565b820191906000526020600020905b81548152906001019060200180831161085357829003601f168201915b505050505081526020016001820160009054906101000a900473ffffffffffffffffffffffffffffffffffffffff1673ffffffffffffffffffffffffffffffffffffffff1673ffffffffffffffffffffffffffffffffffffffff1681526020016002820180546108df90612b60565b80601f016020809104026020016040519081016040528092919081815260200182805461090b90612b60565b80156109585780601f1061092d57610100808354040283529160200191610958565b820191906000526020600020905b81548152906001019060200180831161093b57829003601f168201915b505050505081526020016003820154815250509050919050565b6060600060018054905067ffffffffffffffff8111156109955761099461275a565b5b6040519080825280602002602001820160405280156109ce57816020015b6109bb612075565b8152602001906001900390816109b35790505b5090506000805b600180549050811015610be0573373ffffffffffffffffffffffffffffffffffffffff166004600083815260200190815260200160002060009054906101000a900473ffffffffffffffffffffffffffffffffffffffff1673ffffffffffffffffffffffffffffffffffffffff1603610bcd5760018181548110610a5c57610a5b612b02565b5b90600052602060002090600702016040518060e00160405290816000820160009054906101000a900473ffffffffffffffffffffffffffffffffffffffff1673ffffffffffffffffffffffffffffffffffffffff1673ffffffffffffffffffffffffffffffffffffffff16815260200160018201548152602001600282015481526020016003820160009054906101000a900460ff16151515158152602001600482018054610b0a90612b60565b80601f0160208091040260200160405190810160405280929190818152602001828054610b3690612b60565b8015610b835780601f10610b5857610100808354040283529160200191610b83565b820191906000526020600020905b815481529060010190602001808311610b6657829003601f168201915b5050505050815260200160058201548152602001600682015481525050838381518110610bb357610bb2612b02565b5b60200260200101819052508180610bc990612bc0565b9250505b8080610bd890612bc0565b9150506109d5565b5060008167ffffffffffffffff811115610bfd57610bfc61275a565b5b604051908082528060200260200182016040528015610c3657816020015b610c23612075565b815260200190600190039081610c1b5790505b50905060005b82811015610c9057838181518110610c5757610c56612b02565b5b6020026020010151828281518110610c7257610c71612b02565b5b60200260200101819052508080610c8890612bc0565b915050610c3c565b5080935050505090565b60008181548110610caa57600080fd5b9060005260206000209060040201600091509050806000018054610ccd90612b60565b80601f0160208091040260200160405190810160405280929190818152602001828054610cf990612b60565b8015610d465780601f10610d1b57610100808354040283529160200191610d46565b820191906000526020600020905b815481529060010190602001808311610d2957829003601f168201915b5050505050908060010160009054906101000a900473ffffffffffffffffffffffffffffffffffffffff1690806002018054610d8190612b60565b80601f0160208091040260200160405190810160405280929190818152602001828054610dad90612b60565b8015610dfa5780601f10610dcf57610100808354040283529160200191610dfa565b820191906000526020600020905b815481529060010190602001808311610ddd57829003601f168201915b5050505050908060030154905084565b60056020528060005260406000206000915090508060000160009054906101000a900473ffffffffffffffffffffffffffffffffffffffff16908060010154908060020154908060030160009054906101000a900460ff1690806004018054610e7290612b60565b80601f0160208091040260200160405190810160405280929190818152602001828054610e9e90612b60565b8015610eeb5780601f10610ec057610100808354040283529160200191610eeb565b820191906000526020600020905b815481529060010190602001808311610ece57829003601f168201915b5050505050908060050154908060060154905087565b60006040518060e001604052803373ffffffffffffffffffffffffffffffffffffffff16815260200185815260200184815260200160001515815260200183815260200160018054905081526020017fffffffffffffffffffffffffffffffffffffffffffffffffffffffffffffffff81525090503360046000600180549050815260200190815260200160002060006101000a81548173ffffffffffffffffffffffffffffffffffffffff021916908373ffffffffffffffffffffffffffffffffffffffff160217905550600181908060018154018082558091505060019003906000526020600020906007020160009091909190915060008201518160000160006101000a81548173ffffffffffffffffffffffffffffffffffffffff021916908373ffffffffffffffffffffffffffffffffffffffff160217905550602082015181600101556040820151816002015560608201518160030160006101000a81548160ff02191690831515021790555060808201518160040190816110899190612db4565b5060a0820151816005015560c08201518160060155505050505050565b60046020528060005260406000206000915054906101000a900473ffffffffffffffffffffffffffffffffffffffff1681565b6000600867ffffffffffffffff8111156110f6576110f561275a565b5b60405190808252806020026020018201604052801561112f57816020015b61111c612075565b8152602001906001900390816111145790505b5090506000600660003373ffffffffffffffffffffffffffffffffffffffff1673ffffffffffffffffffffffffffffffffffffffff16815260200190815260200160002090506000805b8551811015611359576000600560008381526020019081526020016000206040518060e00160405290816000820160009054906101000a900473ffffffffffffffffffffffffffffffffffffffff1673ffffffffffffffffffffffffffffffffffffffff1673ffffffffffffffffffffffffffffffffffffffff16815260200160018201548152602001600282015481526020016003820160009054906101000a900460ff1615151515815260200160048201805461123790612b60565b80601f016020809104026020016040519081016040528092919081815260200182805461126390612b60565b80156112b05780601f10611285576101008083540402835291602001916112b0565b820191906000526020600020905b81548152906001019060200180831161129357829003601f168201915b505050505081526020016005820154815260200160068201548152505090503373ffffffffffffffffffffffffffffffffffffffff16816000015173ffffffffffffffffffffffffffffffffffffffff160361134557808586518151811061131b5761131a612b02565b5b602002602001018190525060011515816060015115150361133f5760019250611344565b600092505b5b50808061135190612bc0565b915050611179565b506000604051806080016040528086815260200183151581526020013373ffffffffffffffffffffffffffffffffffffffff1681526020016002805490508152509050600281908060018154018082558091505060019003906000526020600020906003020160009091909190915060008201518160000190816113dd9190612db4565b5060208201518160010160006101000a81548160ff02191690831515021790555060408201518160010160016101000a81548173ffffffffffffffffffffffffffffffffffffffff021916908373ffffffffffffffffffffffffffffffffffffffff1602179055506060820151816002015550508060400151600760008360600151815260200190815260200160002060006101000a81548173ffffffffffffffffffffffffffffffffffffffff021916908373ffffffffffffffffffffffffffffffffffffffff16021790555080606001518360060181905550806060015160018460050154815481106114d5576114d4612b02565b5b906000526020600020906007020160060181905550505050505050565b6060600060018054905067ffffffffffffffff8111156115155761151461275a565b5b60405190808252806020026020018201604052801561154e57816020015b61153b612075565b8152602001906001900390816115335790505b5090506000805b600180549050811015611791573373ffffffffffffffffffffffffffffffffffffffff166004600083815260200190815260200160002060009054906101000a900473ffffffffffffffffffffffffffffffffffffffff1673ffffffffffffffffffffffffffffffffffffffff161480156115f4575084600182815481106115e0576115df612b02565b5b906000526020600020906007020160060154145b1561177e576001818154811061160d5761160c612b02565b5b90600052602060002090600702016040518060e00160405290816000820160009054906101000a900473ffffffffffffffffffffffffffffffffffffffff1673ffffffffffffffffffffffffffffffffffffffff1673ffffffffffffffffffffffffffffffffffffffff16815260200160018201548152602001600282015481526020016003820160009054906101000a900460ff161515151581526020016004820180546116bb90612b60565b80601f01602080910402602001604051908101604052809291908181526020018280546116e790612b60565b80156117345780601f1061170957610100808354040283529160200191611734565b820191906000526020600020905b81548152906001019060200180831161171757829003601f168201915b505050505081526020016005820154815260200160068201548152505083838151811061176457611763612b02565b5b6020026020010181905250818061177a90612bc0565b9250505b808061178990612bc0565b915050611555565b5060008167ffffffffffffffff8111156117ae576117ad61275a565b5b6040519080825280602002602001820160405280156117e757816020015b6117d4612075565b8152602001906001900390816117cc5790505b50905060005b828110156118415783818151811061180857611807612b02565b5b602002602001015182828151811061182357611822612b02565b5b6020026020010181905250808061183990612bc0565b9150506117ed565b50809350505050919050565b60066020528060005260406000206000915090508060000160009054906101000a900473ffffffffffffffffffffffffffffffffffffffff16908060010154908060020154908060030160009054906101000a900460ff16908060040180546118b590612b60565b80601f01602080910402602001604051908101604052809291908181526020018280546118e190612b60565b801561192e5780601f106119035761010080835404028352916020019161192e565b820191906000526020600020905b81548152906001019060200180831161191157829003601f168201915b5050505050908060050154908060060154905087565b6002818154811061195457600080fd5b906000526020600020906003020160009150905080600001805461197790612b60565b80601f01602080910402602001604051908101604052809291908181526020018280546119a390612b60565b80156119f05780601f106119c5576101008083540402835291602001916119f0565b820191906000526020600020905b8154815290600101906020018083116119d357829003601f168201915b5050505050908060010160009054906101000a900460ff16908060010160019054906101000a900473ffffffffffffffffffffffffffffffffffffffff16908060020154905084565b60076020528060005260406000206000915054906101000a900473ffffffffffffffffffffffffffffffffffffffff1681565b6003602052806000526040600020600091509050806000018054611a8f90612b60565b80601f0160208091040260200160405190810160405280929190818152602001828054611abb90612b60565b8015611b085780601f10611add57610100808354040283529160200191611b08565b820191906000526020600020905b815481529060010190602001808311611aeb57829003601f168201915b5050505050908060010160009054906101000a900473ffffffffffffffffffffffffffffffffffffffff1690806002018054611b4390612b60565b80601f0160208091040260200160405190810160405280929190818152602001828054611b6f90612b60565b8015611bbc5780601f10611b9157610100808354040283529160200191611bbc565b820191906000526020600020905b815481529060010190602001808311611b9f57829003601f168201915b5050505050908060030154905084565b336000600360008373ffffffffffffffffffffffffffffffffffffffff1673ffffffffffffffffffffffffffffffffffffffff168152602001908152602001600020604051806080016040529081600082018054611c2990612b60565b80601f0160208091040260200160405190810160405280929190818152602001828054611c5590612b60565b8015611ca25780601f10611c7757610100808354040283529160200191611ca2565b820191906000526020600020905b815481529060010190602001808311611c8557829003601f168201915b505050505081526020016001820160009054906101000a900473ffffffffffffffffffffffffffffffffffffffff1673ffffffffffffffffffffffffffffffffffffffff1673ffffffffffffffffffffffffffffffffffffffff168152602001600282018054611d1190612b60565b80601f0160208091040260200160405190810160405280929190818152602001828054611d3d90612b60565b8015611d8a5780601f10611d5f57610100808354040283529160200191611d8a565b820191906000526020600020905b815481529060010190602001808311611d6d57829003601f168201915b5050505050815260200160038201548152505090508173ffffffffffffffffffffffffffffffffffffffff16816020015173ffffffffffffffffffffffffffffffffffffffff1603611e11576040517f08c379a0000000000000000000000000000000000000000000000000000000008152600401611e0890612ed2565b60405180910390fd5b600060405180608001604052808581526020013373ffffffffffffffffffffffffffffffffffffffff1681526020016040518060400160405280600981526020017f2e2f696d672e6a706700000000000000000000000000000000000000000000008152508152602001600080549050815250905080600360003373ffffffffffffffffffffffffffffffffffffffff1673ffffffffffffffffffffffffffffffffffffffff1681526020019081526020016000206000820151816000019081611edb9190612db4565b5060208201518160010160006101000a81548173ffffffffffffffffffffffffffffffffffffffff021916908373ffffffffffffffffffffffffffffffffffffffff1602179055506040820151816002019081611f389190612db4565b506060820151816003015590505060008190806001815401808255809150506001900390600052602060002090600402016000909190919091506000820151816000019081611f879190612db4565b5060208201518160010160006101000a81548173ffffffffffffffffffffffffffffffffffffffff021916908373ffffffffffffffffffffffffffffffffffffffff1602179055506040820151816002019081611fe49190612db4565b5060608201518160030155505050505050565b604051806080016040528060608152602001600015158152602001600073ffffffffffffffffffffffffffffffffffffffff168152602001600081525090565b604051806080016040528060608152602001600073ffffffffffffffffffffffffffffffffffffffff16815260200160608152602001600081525090565b6040518060e00160405280600073ffffffffffffffffffffffffffffffffffffffff16815260200160008152602001600081526020016000151581526020016060815260200160008152602001600081525090565b600081519050919050565b600082825260208201905092915050565b6000819050602082019050919050565b600081519050919050565b600082825260208201905092915050565b60005b83811015612130578082015181840152602081019050612115565b60008484015250505050565b6000601f19601f8301169050919050565b6000612158826120f6565b6121628185612101565b9350612172818560208601612112565b61217b8161213c565b840191505092915050565b60008115159050919050565b61219b81612186565b82525050565b600073ffffffffffffffffffffffffffffffffffffffff82169050919050565b60006121cc826121a1565b9050919050565b6121dc816121c1565b82525050565b6000819050919050565b6121f5816121e2565b82525050565b60006080830160008301518482036000860152612218828261214d565b915050602083015161222d6020860182612192565b50604083015161224060408601826121d3565b50606083015161225360608601826121ec565b508091505092915050565b600061226a83836121fb565b905092915050565b6000602082019050919050565b600061228a826120ca565b61229481856120d5565b9350836020820285016122a6856120e6565b8060005b858110156122e257848403895281516122c3858261225e565b94506122ce83612272565b925060208a019950506001810190506122aa565b50829750879550505050505092915050565b6000602082019050818103600083015261230e818461227f565b905092915050565b6000604051905090565b600080fd5b600080fd5b612333816121e2565b811461233e57600080fd5b50565b6000813590506123508161232a565b92915050565b60006020828403121561236c5761236b612320565b5b600061237a84828501612341565b91505092915050565b61238c816121c1565b82525050565b61239b816121e2565b82525050565b6123aa81612186565b82525050565b600082825260208201905092915050565b60006123cc826120f6565b6123d681856123b0565b93506123e6818560208601612112565b6123ef8161213c565b840191505092915050565b6000819050919050565b61240d816123fa565b82525050565b600060e082019050612428600083018a612383565b6124356020830189612392565b6124426040830188612392565b61244f60608301876123a1565b818103608083015261246181866123c1565b905061247060a0830185612392565b61247d60c0830184612404565b98975050505050505050565b612492816121c1565b811461249d57600080fd5b50565b6000813590506124af81612489565b92915050565b6000602082840312156124cb576124ca612320565b5b60006124d9848285016124a0565b91505092915050565b600060808301600083015184820360008601526124ff828261214d565b915050602083015161251460208601826121d3565b506040830151848203604086015261252c828261214d565b915050606083015161254160608601826121ec565b508091505092915050565b6000602082019050818103600083015261256681846124e2565b905092915050565b600081519050919050565b600082825260208201905092915050565b6000819050602082019050919050565b6125a3816123fa565b82525050565b600060e0830160008301516125c160008601826121d3565b5060208301516125d460208601826121ec565b5060408301516125e760408601826121ec565b5060608301516125fa6060860182612192565b5060808301518482036080860152612612828261214d565b91505060a083015161262760a08601826121ec565b5060c083015161263a60c086018261259a565b508091505092915050565b600061265183836125a9565b905092915050565b6000602082019050919050565b60006126718261256e565b61267b8185612579565b93508360208202850161268d8561258a565b8060005b858110156126c957848403895281516126aa8582612645565b94506126b583612659565b925060208a01995050600181019050612691565b50829750879550505050505092915050565b600060208201905081810360008301526126f58184612666565b905092915050565b6000608082019050818103600083015261271781876123c1565b90506127266020830186612383565b818103604083015261273881856123c1565b90506127476060830184612392565b95945050505050565b600080fd5b600080fd5b7f4e487b7100000000000000000000000000000000000000000000000000000000600052604160045260246000fd5b6127928261213c565b810181811067ffffffffffffffff821117156127b1576127b061275a565b5b80604052505050565b60006127c4612316565b90506127d08282612789565b919050565b600067ffffffffffffffff8211156127f0576127ef61275a565b5b6127f98261213c565b9050602081019050919050565b82818337600083830152505050565b6000612828612823846127d5565b6127ba565b90508281526020810184848401111561284457612843612755565b5b61284f848285612806565b509392505050565b600082601f83011261286c5761286b612750565b5b813561287c848260208601612815565b91505092915050565b60008060006060848603121561289e5761289d612320565b5b60006128ac86828701612341565b93505060206128bd86828701612341565b925050604084013567ffffffffffffffff8111156128de576128dd612325565b5b6128ea86828701612857565b9150509250925092565b60006020820190506129096000830184612383565b92915050565b600067ffffffffffffffff82111561292a5761292961275a565b5b602082029050602081019050919050565b600080fd5b600061295361294e8461290f565b6127ba565b905080838252602082019050602084028301858111156129765761297561293b565b5b835b818110156129bd57803567ffffffffffffffff81111561299b5761299a612750565b5b8086016129a88982612857565b85526020850194505050602081019050612978565b5050509392505050565b600082601f8301126129dc576129db612750565b5b81356129ec848260208601612940565b91505092915050565b60008060408385031215612a0c57612a0b612320565b5b600083013567ffffffffffffffff811115612a2a57612a29612325565b5b612a36858286016129c7565b925050602083013567ffffffffffffffff811115612a5757612a56612325565b5b612a6385828601612857565b9150509250929050565b60006080820190508181036000830152612a8781876123c1565b9050612a9660208301866123a1565b612aa36040830185612383565b612ab06060830184612392565b95945050505050565b600060208284031215612acf57612ace612320565b5b600082013567ffffffffffffffff811115612aed57612aec612325565b5b612af984828501612857565b91505092915050565b7f4e487b7100000000000000000000000000000000000000000000000000000000600052603260045260246000fd5b7f4e487b7100000000000000000000000000000000000000000000000000000000600052602260045260246000fd5b60006002820490506001821680612b7857607f821691505b602082108103612b8b57612b8a612b31565b5b50919050565b7f4e487b7100000000000000000000000000000000000000000000000000000000600052601160045260246000fd5b6000612bcb826121e2565b91507fffffffffffffffffffffffffffffffffffffffffffffffffffffffffffffffff8203612bfd57612bfc612b91565b5b600182019050919050565b60008190508160005260206000209050919050565b60006020601f8301049050919050565b600082821b905092915050565b600060088302612c6a7fffffffffffffffffffffffffffffffffffffffffffffffffffffffffffffffff82612c2d565b612c748683612c2d565b95508019841693508086168417925050509392505050565b6000819050919050565b6000612cb1612cac612ca7846121e2565b612c8c565b6121e2565b9050919050565b6000819050919050565b612ccb83612c96565b612cdf612cd782612cb8565b848454612c3a565b825550505050565b600090565b612cf4612ce7565b612cff818484612cc2565b505050565b5b81811015612d2357612d18600082612cec565b600181019050612d05565b5050565b601f821115612d6857612d3981612c08565b612d4284612c1d565b81016020851015612d51578190505b612d65612d5d85612c1d565b830182612d04565b50505b505050565b600082821c905092915050565b6000612d8b60001984600802612d6d565b1980831691505092915050565b6000612da48383612d7a565b9150826002028217905092915050565b612dbd826120f6565b67ffffffffffffffff811115612dd657612dd561275a565b5b612de08254612b60565b612deb828285612d27565b600060209050601f831160018114612e1e5760008415612e0c578287015190505b612e168582612d98565b865550612e7e565b601f198416612e2c86612c08565b60005b82811015612e5457848901518255600182019150602085019450602081019050612e2f565b86831015612e715784890151612e6d601f891682612d7a565b8355505b6001600288020188555050505b505050505050565b7f4164647265737320616c647265616479206578697374696e6700000000000000600082015250565b6000612ebc6019836123b0565b9150612ec782612e86565b602082019050919050565b60006020820190508181036000830152612eeb81612eaf565b905091905056fea26469706673582212206fcc42597b16ae4e69eeddd64540b325db10976f742d757fe0ec2e68767f1a4064736f6c63430008110033",
  "linkReferences": {},
  "deployedLinkReferences": {}
}